:100000000C942A000C943F000C943F000C943F0089
:100010000C943F000C943F000C943F000C943F0064
:100020000C943F000C943F000C943F000C943F0054
:100030000C943F000C943F000C943F000C943F0044
:100040000C943F000C943F000C943F000C943F0034
:100050000C943F0011241FBECFE5D8E0DEBFCDBF1A
:1000600010E0A0E6B0E0E0E1F1E002C005900D9202
:10007000A036B107D9F70E947F000C9486000C943B
:100080000000CF93DF93CDB7DEB787E290E0FC01AD
:10009000108286E290E027E8FC01208380E590E072
:1000A00020E530E0F90120812F71FC01208384E3F9
:1000B00090E02FEFFC01208385E390E02FEFFC011F
:1000C000208386E290E026E230E0F901208120647E
:1000D000FC012083000086E290E0FC018081882FF3
:1000E00090E080749927892BB1F385E390E025E2B5
:1000F00030E0F90120812095FC012083E2CFCF93ED
:10010000DF93CDB7DEB70E944100FFCFF894FFCF59
:00000001FF
