:100000000C942A000C943F000C943F000C943F0089
:100010000C943F000C943F000C943F000C943F0064
:100020000C943F000C943F000C943F000C943F0054
:100030000C943F000C943F000C943F000C943F0044
:100040000C943F000C943F000C943F000C943F0034
:100050000C943F0011241FBECFE5D8E0DEBFCDBF1A
:1000600010E0A0E6B0E0E0E8F1E002C005900D92FB
:10007000A036B107D9F70E94B7000C94BE000C94CB
:100080000000CF93DF931F92CDB7DEB787E290E0F9
:1000900020E2FC01208386E290E027E8FC01208337
:1000A00080E590E020E530E0F90120812F71FC012E
:1000B000208384E390E02FEFFC01208385E390E030
:1000C0002FEFFC012083198287E290E027E230E0E5
:1000D000F90120812E7FFC01208386E290E026E258
:1000E00030E0F90120812064FC012083000086E2D9
:1000F00090E0FC018081882F90E080749927892B03
:10010000B1F385E290E0FC018081807F898387E202
:1001100090E027E230E0F90120812160FC0120839A
:1001200086E290E026E230E0F90120812064FC01C3
:100130002083000086E290E0FC018081882F90E01F
:1001400080749927892BB1F385E290E0FC018081CE
:1001500082958F70882F90E0982F8981892B8983D1
:1001600085E390E029812095FC012083ACCFCF93DB
:10017000DF93CDB7DEB70E944100FFCFF894FFCFE9
:00000001FF
