:100000000C942A000C943F000C943F000C943F0089
:100010000C943F000C943F000C943F000C943F0064
:100020000C943F000C943F000C943F000C943F0054
:100030000C943F000C943F000C943F000C943F0044
:100040000C943F000C943F000C943F000C943F0034
:100050000C943F0011241FBECFE5D8E0DEBFCDBF1A
:1000600010E0A0E6B0E0E2EAF0E002C005900D92F8
:10007000A036B107D9F70E9448000C944F000C94A9
:100080000000CF93DF93CDB7DEB7DF91CF91089516
:10009000CF93DF93CDB7DEB70E944100FFCFF89436
:0200A000FFCF90
:00000001FF
