S00B00004D50542E7372656328
S11300000C942A000C9447000C9447000C9447006D
S11300100C9447000C9447000C9447000C94470040
S11300200C9447000C9447000C9447000C94470030
S11300300C9447000C9447000C9447000C94470020
S11300400C9447000C9447000C9447000C94470010
S11300500C94470011241FBECFE5D8E0DEBFCDBF0E
S113006011E0A0E6B0E0E4E9FBE002C005900D92E7
S1130070A033B107D9F721E0A0E3B1E001C01D929C
S1130080A033B207E1F70E94FC010C94C8050C945C
S11300900000CF93DF9300D01F92CDB7DEB78B83E0
S11300A08B81883018F080E090E041C087E290E0D6
S11300B027E230E0F9012081287FFC01208387E2D8
S11300C090E027E230E0F90130812B81232BFC0101
S11300D0208386E290E026E230E0F901208120646A
S11300E0FC012083000086E290E0FC018081882FDF
S11300F090E080749927892BB1F784E290E0FC01A9
S113010080818295869586958370282F30E085E2DC
S113011090E0FC018081882F90E0880F991F880F60
S1130120991F822B932B9A83898389819A810F90BB
S11301300F900F90DF91CF9108956F927F928F92DD
S11301409F92AF92BF92CF92DF92EF92FF920F9362
S11301501F93CF93DF93CDB7DEB7CB55D1090FB63D
S1130160F894DEBF0FBECDBF82E08D838D810E94E7
S113017049009F838E838E819F819C0140E050E0E3
S113018084EF91E0DC010E94D302DC01CB01072E55
S11301907AE0B695A795979587957A95D1F7702DBE
S11301A09F838E838F818F938E818F9388EF90E0CE
S11301B0892F8F9388EF90E08F93CE010C96292F8F
S11301C02F938F930E94DE020F900F900F900F9049
S11301D00F900F90CE010C960E944D028091F0007A
S11301E09091F100A091F200B091F3008887998773
S11301F0AA87BB8719821A821B821C828E819F81E7
S11302009C0140E050E08091600090916100A091D9
S11302106200B091630082179307A407B5076CF4DA
S11302208091640090916500A0916600B091670090
S113023089839A83AB83BC83A2C08E819F819C01F6
S113024040E050E08091E0009091E100A091E20054
S1130250B091E300281739074A075B076CF48091D3
S1130260E4009091E500A091E600B091E700898355
S11302709A83AB83BC8383C08E819F819C0140E0C1
S113028050E08091600090916100A0916200B09173
S1130290630082179307A407B5070CF470C08E811E
S11302A09F819C0140E050E080916800909169003A
S11302B0A0916A00B0916B00281739074A075B07C1
S11302C00CF45DC0E0906400F0906500009166005D
S11302D01091670020916C0030916D0040916E0088
S11302E050916F008091640090916500A091660028
S11302F0B091670059016A01A81AB90ACA0ADB0A4F
S11303008E819F819C0140E050E08091600090913B
S11303106100A0916200B091630039014A01681A3A
S1130320790A8A0A9B0AD401C301A6019501BC017A
S1130330CD010E9473025B016C0120916800309131
S1130340690040916A0050916B0080916000909127
S11303506100A0916200B0916300281B390B4A0B25
S11303605B0BC601B5010E94A502DA01C9018E0D1D
S11303709F1DA01FB11F89839A83AB83BC838C818B
S11303808F938B818F938A818F9389818F9385E15A
S113039091E0892F8F9385E191E08F93CE010C96A4
S11303A0292F2F938F930E94DE028DB79EB7089654
S11303B00FB6F894DEBF0FBECDBFCE010C960E94DF
S11303C04D0284EF91E00E9403020000C55ADF4F02
S11303D00FB6F894DEBF0FBECDBFDF91CF911F9152
S11303E00F91FF90EF90DF90CF90BF90AF909F90D0
S11303F08F907F906F900895CF93DF93CDB7DEB742
S11304000E949D00FFCFCF93DF9300D000D000D097
S1130410CDB7DEB79E838D831C821B8212C01A82E5
S1130420198205C089819A8101969A838983898179
S11304309A8188359240B0F38B819C8101969C838C
S11304408B832B813C818D819E812817390738F35A
S1130450000026960FB6F894DEBF0FBECDBFDF9125
S1130460CF910895CF93DF931F92CDB7DEB78983E1
S113047000008BE290E0FC018081882F90E0807284
S11304809927892BB1F38CE290E02981FC01208328
S113049000000F90DF91CF910895CF93DF9300D0A8
S11304A000D0CDB7DEB79C838B838B819C819A83EC
S11304B089830BC089819A81FC0180810E94320268
S11304C089819A8101969A83898389819A81FC0121
S11304D08081882379F700000F900F900F900F9080
S11304E0DF91CF910895DB018F939F930E94D302F4
S11304F0BF91AF91A29F800D911DA39F900DB29FBC
S1130500900D11240895A1E21A2EAA1BBB1BFD0114
S11305100DC0AA1FBB1FEE1FFF1FA217B307E407DE
S1130520F50720F0A21BB30BE40BF50B661F771F36
S1130530881F991F1A9469F7609570958095909516
S11305409B01AC01BD01CF010895052E97FB1EF45C
S113055000940E94BC0257FD07D00E94830207FC4E
S113056003D04EF40C94BC025095409530952195DF
S11305703F4F4F4F5F4F08959095809570956195CB
S11305807F4F8F4F9F4F0895A29FB001B39FC0012B
S1130590A39F700D811D1124911DB29F700D811DAB
S11305A01124911D08950E94C402A59F900DB49F2B
S11305B0900DA49F800D911D11240895AEE0B0E02C
S11305C0E4EEF2E00C949F050D891E8986E08C838D
S11305D01A8309838FEF9FE79E838D83AE01475E65
S11305E05F4F6F89788DCE0101960E940003EF81E1
S11305F0F885E00FF11F10822E96E4E00C94BB0501
S1130600ABE0B0E0E6E0F3E00C9491056C017B0113
S11306108A01FC0117821682838181FFCCC1CE013D
S113062001963C01F6019381F70193FD859193FFB7
S113063081917F01882309F4BAC1853239F493FD8D
S1130640859193FF81917F01853229F4B60190E071
S11306500E94F704E7CF912C212C312CFFE1F315F4
S1130660D8F08B3279F038F4803279F08332A1F407
S1130670232D20611DC08D3261F0803369F4232D58
S1130680216016C0832D8260382EE32DE4603E2E57
S11306902AC0F32DF8601DC037FC2DC020ED280FB3
S11306A02A3040F08E32B9F436FC81C1232D206407
S11306B0322E19C036FE06C08AE0989E200D112401
S11306C0922E11C0EAE02E9E200D1124222EF32D2D
S11306D0F0623F2E08C08C3621F4832D8068382EBA
S11306E002C0883641F4F70193FD859193FF81910F
S11306F07F018111B3CF982F9F7D9554933028F4B7
S11307000C5F1F4F9FE399830DC0833631F083370D
S113071071F0833509F059C021C0F80180818983C3
S11307200E5F1F4F88248394912C530113C028011A
S1130730F2E04F0E511CF801A080B18036FE03C0D8
S1130740692D70E002C06FEF7FEFC5010E94EC04D9
S11307504C018201F32DFF773F2E16C0280122E0C1
S1130760420E511CF801A080B18036FE03C0692DF1
S113077070E002C06FEF7FEFC5010E94E1044C01FD
S1130780F32DF0683F2E820133FC1BC0822D90E0D4
S113079088169906B0F4B60180E290E00E94F7044E
S11307A02A94F4CFF50137FC859137FE81915F01DE
S11307B0B60190E00E94F70421102A9421E0821AE5
S11307C091088114910471F7E8C0843611F08936D8
S11307D041F5F80137FE07C0608171818281938100
S11307E00C5F1F4F08C060817181072E000C880BBD
S11307F0990B0E5F1F4FF32DFF763F2E97FF09C015
S113080090958095709561957F4F8F4F9F4FF068BD
S11308103F2E2AE030E0A3010E943305882E86187B
S113082045C0853731F4232D2F7EB22E2AE030E0E7
S113083025C0932D997FB92E8F36C1F018F48835D1
S113084079F0B5C0803719F0883721F0B0C0E92FAE
S1130850E061BE2EB4FE0DC0FB2DF460BF2E09C0B6
S113086034FE0AC0292F2660B22E06C028E030E0EC
S113087005C020E130E002C020E132E0F801B7FE1B
S113088007C060817181828193810C5F1F4F06C014
S11308906081718180E090E00E5F1F4FA3010E9490
S11308A03305882E8618FB2DFF773F2E36FE0DC0AC
S11308B0232D2E7FA22E891458F434FE0BC032FC53
S11308C009C0832D8E7EA82E05C0B82CA32C03C08E
S11308D0B82C01C0B92CA4FE0FC0FE01E80DF11D17
S11308E08081803321F49A2D997EA92E09C0A2FE1D
S11308F006C0B394B39404C08A2D867809F0B394E7
S1130900A3FC11C0A0FE06C0B21488F4280C922CDB
S11309109B180EC0B21460F4B60180E290E00E940D
S1130920F704B394F7CFB21418F42B1802C0982C20
S1130930212CA4FE10C0B60180E390E00E94F704CD
S1130940A2FE17C0A1FC03C088E790E002C088E5BE
S113095090E0B6010CC08A2D867859F0A1FE02C041
S11309608BE201C080E2A7FC8DE2B60190E00E9418
S1130970F704891438F4B60180E390E00E94F70488
S11309809A94F7CF8A94F301E80DF11D8081B601A2
S113099090E00E94F7048110F5CF222009F442CEA2
S11309A0B60180E290E00E94F7042A94F6CFF601A3
S11309B08681978102C08FEF9FEF2B96E2E10C9422
S11309C0AD05FC010590615070400110D8F7809589
S11309D090958E0F9F1F0895FC0161507040019007
S11309E00110D8F7809590958E0F9F1F08950F934F
S11309F01F93CF93DF93FB01238121FD03C08FEF6E
S1130A009FEF2CC022FF16C0468157812481358177
S1130A104217530744F4A081B1819D012F5F3F4FDA
S1130A20318320838C93268137812F5F3F4F378317
S1130A30268314C08B01EC01FB010084F185E02DB9
S1130A400995892BE1F6D80116968D919C911797FB
S1130A50019617969C938E931697CE01DF91CF91B2
S1130A601F910F910895FA01AA27283051F12031DE
S1130A7081F1E8946F936E7F6E5F7F4F8F4F9F4F2E
S1130A80AF4FB1E03ED0B4E03CD0670F781F891F70
S1130A909A1FA11D680F791F8A1F911DA11D6A0F3E
S1130AA0711D811D911DA11D20D009F468943F91F1
S1130AB02AE0269F11243019305D3193DEF6CF01F0
S1130AC00895462F4770405D4193B3E00FD0C9F7B6
S1130AD0F6CF462F4F70405D4A3318F0495D31FD23
S1130AE04052419302D0A9F7EACFB4E0A695979576
S1130AF0879577956795BA95C9F70097610571054C
S1130B0008959B01AC010A2E069457954795379595
S1130B102795BA95C9F7620F731F841F951FA01DEF
S1130B2008952F923F924F925F926F927F928F928D
S1130B309F92AF92BF92CF92DF92EF92FF920F9368
S1130B401F93CF93DF93CDB7DEB7CA1BDB0B0FB672
S1130B50F894DEBF0FBECDBF09942A88398848882F
S1130B605F846E847D848C849B84AA84B984C884C5
S1130B70DF80EE80FD800C811B81AA81B981CE0FBC
S1130B80D11D0FB6F894DEBF0FBECDBFED010895A1
S1070B90F894FFCF03
S1130B942C0100001E0000001E0000009001000053
S1130BA42C0100001E0000000E01000028000000BB
S1130BB4EB00000032000000C80000003C0000000C
S1130BC4AF000000460000009B000000500000003D
S1130BD48C0000005A000000820000006400000041
S1130BE46E000000780000005A0000008C00000031
S1130BF450000000A00000004B000000B4000000FE
S1130C0441000000C800000032000000FA000000A7
S1130C142D0000002C010000230000005E010000F0
S1130C241E0000009001000041442D57616E646C65
S1130C34756E673A204B616E616C5B325D203D20BA
S1130C4425640A0D00456E746665726E756E6728B8
S1130C543129203D2025336C645B6D6D5D0A0D00E4
S9030000FC
