S00B00004D50542E7372656328
S11300000C942A000C9447000C9447000C9447006D
S11300100C9447000C9447000C9447000C94470040
S11300200C9447000C9447000C9447000C94470030
S11300300C9447000C9447000C9447000C94470020
S11300400C9447000C9447000C9447000C94470010
S11300500C94470011241FBECFE5D8E0DEBFCDBF0E
S113006010E0A0E6B0E0EEE9FDE002C005900D92DC
S1130070A439B107D9F720E0A4E9B0E001C01D928A
S1130080A839B207E1F70E9430010C94CD060C9414
S11300900000CF93DF93CDB7DEB787E290E020E294
S11300A0FC01208386E290E027E8FC01208380E5C0
S11300B090E020E530E0F90120812F71FC012083DC
S11300C00000DF91CF910895CF93DF9300D01F926A
S11300D0CDB7DEB78B838B81883018F080E090E059
S11300E041C087E290E027E230E0F9012081287FD7
S11300F0FC01208387E290E027E230E0F9013081BF
S11301002B81232BFC01208386E290E026E230E061
S1130110F90120812064FC012083000086E290E044
S1130120FC018081882F90E080749927892BB1F796
S113013084E290E0FC0180818295869586958370A7
S1130140282F30E085E290E0FC018081882F90E048
S1130150880F991F880F991F822B932B9A83898369
S113016089819A810F900F900F90DF91CF9108951C
S11301700F931F93CF93DF93CDB7DEB729970FB6B5
S1130180F894DEBF0FBECDBF0E94490000E815E21F
S113019020E030E041E060E088E00E94660180E019
S11301A00E9464009A83898381E00E9464009C8396
S11301B08B8389819A810024880F991F001C880FE2
S11301C0991F001C892F902D8D838B819C81002485
S11301D0880F991F001C880F991F001C892F902DD0
S11301E08E838D81882F90E082959295907F9827B9
S11301F0807F9827982F8E81892B8F8385E390E0C9
S11302002F812095FC01208382E390E00E94C202AA
S1130210998788878C818F938B818F938A818F9321
S113022089818F9386E690E0892F8F9386E690E00C
S11302308F9389858F9388858F930E94E3038DB76D
S11302409EB708960FB6F894DEBF0FBECDBF888563
S113025099850E947A0284EF91E00E9437019FCF32
S1130260CF93DF93CDB7DEB70E94B800FFCFCF9313
S1130270DF9300D000D000D0CDB7DEB79E838D834E
S11302801C821B8212C01A82198205C089819A813C
S113029001969A83898389819A8188359240B0F343
S11302A08B819C8101969C838B832B813C818D81E6
S11302B09E812817390738F3000026960FB6F89464
S11302C0DEBF0FBECDBFDF91CF9108950F931F9373
S11302D0CF93DF93CDB7DEB727970FB6F894DEBF81
S11302E00FBECDBF89836A834B830C831D832E830A
S11302F03F838A81813051F480E490E020E430E04F
S1130300F90120812062FC01208315C08A8182309A
S113031051F480E490E020E430E0F901208120638E
S1130320FC01208308C080E490E020E430E0F9017F
S11303302081FC0120838B81813049F480E490E0AA
S113034020E430E0F9012081FC0120830CC08B8182
S1130350823049F480E490E020E430E0F901208127
S11303602860FC0120838981882F90E087309105E3
S1130370C9F08830910534F485309105D1F10697A0
S113038039F038C088309105B9F00997F9F032C0D6
S113039080E490E020E430E0F90120812260FC0157
S11303A0208328C080E490E020E430E0F90120813B
S11303B02460FC0120831EC080E490E020E430E04F
S11303C0F90120812660FC01208314C08AE290E0B8
S11303D02AE230E0F90120812460FC01208380E4DA
S11303E090E020E430E0F90120812660FC012083C4
S11303F001C0000009E210E08C819D81AE81BF81C3
S1130400880F991FAA1FBB1F880F991FAA1FBB1F04
S1130410880F991FAA1FBB1F880F991FAA1FBB1FF4
S11304209C01AD0180E094E2A4EFB0E0BC01CD01F9
S11304300E94A002DA01C9018150F801808300E41E
S113044010E08C819D81AE81BF81880F991FAA1F06
S1130450BB1F880F991FAA1FBB1F880F991FAA1FB4
S1130460BB1F880F991FAA1FBB1F9C01AD0180E011
S113047094E2A4EFB0E0BC01CD010E94A002DA0135
S1130480C9010197A109B109892F9A2FAB2FBB2765
S1130490F80180838AE290E02AE230E0F9012081C9
S11304A02861FC012083000027960FB6F894DEBF74
S11304B00FBECDBFDF91CF911F910F910895CF93C0
S11304C0DF931F92CDB7DEB7898300008BE290E003
S11304D0FC018081882F90E080729927892BB1F3E9
S11304E08CE290E02981FC01208300000F90DF91D1
S11304F0CF910895CF93DF9300D000D0CDB7DEB76E
S11305009C838B838B819C819A8389830BC0898193
S11305109A81FC0180810E945F0289819A810196FF
S11305209A83898389819A81FC018081882379F760
S113053000000F900F900F900F90DF91CF910895CE
S1130540A1E21A2EAA1BBB1BFD010DC0AA1FBB1FD3
S1130550EE1FFF1FA217B307E407F50720F0A21B45
S1130560B30BE40BF50B661F771F881F991F1A94B2
S113057069F760957095809590959B01AC01BD01DC
S1130580CF0108950F931F93CF93DF93823091058A
S113059010F482E090E0E0919600F091970020E062
S11305A030E0A0E0B0E0309719F140815181028140
S11305B0138148175907C8F08417950769F41097F1
S11305C031F012960C93129713961C9327C0009344
S11305D096001093970022C02115310519F0421797
S11305E0530718F49A01BD01EF01DF01F801DBCFD5
S11305F021153105F9F0281B390B2430310580F41D
S11306008A819B816115710521F0FB0193838283AB
S113061004C09093970080939600FE01329644C0E4
S1130620FE01E20FF31F8193919322503109398324
S113063028833AC02091940030919500232B41F4F3
S113064020916200309163003093950020939400D0
S113065020916000309161002115310541F42DB7DE
S11306603EB74091640050916500241B350BE09126
S11306709400F0919500E217F307A0F42E1B3F0BB2
S11306802817390778F0AC014E5F5F4F2417350700
S113069048F04E0F5F1F5093950040939400819350
S11306A0919302C0E0E0F0E0CF01DF91CF911F9180
S11306B00F910895CF93DF93009709F481C0FC0153
S11306C0329713821282A0919600B09197001097EE
S11306D081F420813181820F931F20919400309105
S11306E095002817390751F5F0939500E09394008D
S11306F067C0ED0120E030E0CE17DF0740F44A8107
S11307005B819E0141155105F1F0EA01F5CFD383D8
S1130710C28340815181840F951FC817D90759F4AA
S113072088819981840F951F0296918380838A81A1
S11307309B81938382832115310529F4F0939700DB
S1130740E09396003DC0E901FB83EA834991599106
S1130750C40FD51FEC17FD0761F480819181840FCC
S1130760951F0296E90199838883828193819B83F3
S11307708A83E0E0F0E012968D919C9113970097A4
S113078019F0FD01DC01F7CF8D919C9111979D012A
S11307902E5F3F4F820F931F20919400309195005C
S11307A02817390769F4309729F4109297001092AA
S11307B0960002C013821282B0939500A093940015
S11307C0DF91CF910895AEE0B0E0E9EEF3E00C9450
S11307D0A4060D891E8986E08C831A8309838FEF12
S11307E09FE79E838D83AE01475E5F4F6F89788D4F
S11307F0CE0101960E940504EF81F885E00FF11FF8
S113080010822E96E4E00C94C006ABE0B0E0EBE07E
S1130810F4E00C9496066C017B018A01FC011782BA
S11308201682838181FFCCC1CE0101963C01F60181
S11308309381F70193FD859193FF81917F01882333
S113084009F4BAC1853239F493FD859193FF8191FE
S11308507F01853229F4B60190E00E94FC05E7CFC0
S1130860912C212C312CFFE1F315D8F08B3279F047
S113087038F4803279F08332A1F4232D20611DC035
S11308808D3261F0803369F4232D216016C0832DED
S11308908260382EE32DE4603E2E2AC0F32DF860EA
S11308A01DC037FC2DC020ED280F2A3040F08E32B9
S11308B0B9F436FC81C1232D2064322E19C036FED2
S11308C006C08AE0989E200D1124922E11C0EAE001
S11308D02E9E200D1124222EF32DF0623F2E08C0EF
S11308E08C3621F4832D8068382E02C0883641F47A
S11308F0F70193FD859193FF81917F018111B3CF1E
S1130900982F9F7D9554933028F40C5F1F4F9FE3DD
S113091099830DC0833631F0833771F0833509F044
S113092059C021C0F801808189830E5F1F4F88243C
S11309308394912C530113C02801F2E04F0E511CF3
S1130940F801A080B18036FE03C0692D70E002C0BA
S11309506FEF7FEFC5010E94F1054C018201F32D79
S1130960FF773F2E16C0280122E0420E511CF801E9
S1130970A080B18036FE03C0692D70E002C06FEF25
S11309807FEFC5010E94E6054C01F32DF0683F2E70
S1130990820133FC1BC0822D90E088169906B0F4C6
S11309A0B60180E290E00E94FC052A94F4CFF501A0
S11309B037FC859137FE81915F01B60190E00E947A
S11309C0FC0521102A9421E0821A910881149104D3
S11309D071F7E8C0843611F0893641F5F80137FE25
S11309E007C060817181828193810C5F1F4F08C0B1
S11309F060817181072E000C880B990B0E5F1F4FCD
S1130A00F32DFF763F2E97FF09C090958095709542
S1130A1061957F4F8F4F9F4FF0683F2E2AE030E063
S1130A20A3010E943806882E861845C0853731F404
S1130A30232D2F7EB22E2AE030E025C0932D997FFE
S1130A40B92E8F36C1F018F4883579F0B5C08037E7
S1130A5019F0883721F0B0C0E92FE061BE2EB4FE52
S1130A600DC0FB2DF460BF2E09C034FE0AC0292F2F
S1130A702660B22E06C028E030E005C020E130E058
S1130A8002C020E132E0F801B7FE07C06081718145
S1130A90828193810C5F1F4F06C06081718180E069
S1130AA090E00E5F1F4FA3010E943806882E86181F
S1130AB0FB2DFF773F2E36FE0DC0232D2E7FA22E59
S1130AC0891458F434FE0BC032FC09C0832D8E7E89
S1130AD0A82E05C0B82CA32C03C0B82C01C0B92C77
S1130AE0A4FE0FC0FE01E80DF11D8081803321F4C6
S1130AF09A2D997EA92E09C0A2FE06C0B394B39480
S1130B0004C08A2D867809F0B394A3FC11C0A0FE1A
S1130B1006C0B21488F4280C922C9B180EC0B21490
S1130B2060F4B60180E290E00E94FC05B394F7CF34
S1130B30B21418F42B1802C0982C212CA4FE10C057
S1130B40B60180E390E00E94FC05A2FE17C0A1FC60
S1130B5003C088E790E002C088E590E0B6010CC0CD
S1130B608A2D867859F0A1FE02C08BE201C080E292
S1130B70A7FC8DE2B60190E00E94FC05891438F4CC
S1130B80B60180E390E00E94FC059A94F7CF8A9422
S1130B90F301E80DF11D8081B60190E00E94FC058F
S1130BA08110F5CF222009F442CEB60180E290E014
S1130BB00E94FC052A94F6CFF6018681978102C033
S1130BC08FEF9FEF2B96E2E10C94B206FC010590A7
S1130BD0615070400110D8F7809590958E0F9F1F3B
S1130BE00895FC016150704001900110D8F7809580
S1130BF090958E0F9F1F08950F931F93CF93DF93AC
S1130C00FB01238121FD03C08FEF9FEF2CC022FF46
S1130C1016C046815781248135814217530744F415
S1130C20A081B1819D012F5F3F4F318320838C933D
S1130C30268137812F5F3F4F3783268314C08B0172
S1130C40EC01FB010084F185E02D0995892BE1F687
S1130C50D80116968D919C911797019617969C939F
S1130C608E931697CE01DF91CF911F910F91089526
S1130C70FA01AA27283051F1203181F1E8946F93C9
S1130C806E7F6E5F7F4F8F4F9F4FAF4FB1E03ED06F
S1130C90B4E03CD0670F781F891F9A1FA11D680F0D
S1130CA0791F8A1F911DA11D6A0F711D811D911D40
S1130CB0A11D20D009F468943F912AE0269F1124B5
S1130CC03019305D3193DEF6CF010895462F477019
S1130CD0405D4193B3E00FD0C9F7F6CF462F4F7074
S1130CE0405D4A3318F0495D31FD4052419302D0D2
S1130CF0A9F7EACFB4E0A695979587957795679578
S1130D00BA95C9F700976105710508959B01AC0177
S1130D100A2E06945795479537952795BA95C9F79E
S1130D20620F731F841F951FA01D08952F923F9279
S1130D304F925F926F927F928F929F92AF92BF92E7
S1130D40CF92DF92EF92FF920F931F93CF93DF9393
S1130D50CDB7DEB7CA1BDB0B0FB6F894DEBF0FBEF0
S1130D60CDBF09942A88398848885F846E847D843D
S1130D708C849B84AA84B984C884DF80EE80FD803F
S1130D800C811B81AA81B981CE0FD11D0FB6F894B5
S1110D90DEBF0FBECDBFED010895F894FFCF76
S1130D9E00009800200041442D57616E646C756EFE
S1130DAE673A204B616E616C5B305D203D202534CB
S1130DBE64204B616E616C5B315D203D2025346493
S1070DCE0A0D000006
S9030000FC
